09:13:01.495285 IP (tos 0x0, ttl 64, id 59462, offset 0, flags [DF], proto TCP (6), length 60)
    ksat-api-sv-1.c.syns-sol-grdsys-internal-prod.internal.36390 > 192.146.239.16.5673: Flags [S], cksum 0xe269 (incorrect -> 0xe949), seq 3054789070, win 65320, options [mss 1420,sackOK,TS val 1381854954 ecr 0,nop,wscale 7], length 0
	0x0000:  4201 0a92 2801 4201 0a92 2806 0800 4500
	0x0010:  003c e846 4000 4006 703a 0a92 2806 c092
	0x0020:  ef10 8e26 1629 b614 61ce 0000 0000 a002
	0x0030:  ff28 e269 0000 0204 058c 0402 080a 525d
	0x0040:  6eea 0000 0000 0103 0307
09:13:01.762474 IP (tos 0x0, ttl 35, id 0, offset 0, flags [DF], proto TCP (6), length 60)
    192.146.239.16.5673 > ksat-api-sv-1.c.syns-sol-grdsys-internal-prod.internal.36390: Flags [S.], cksum 0x0b3d (correct), seq 1537574862, ack 3054789071, win 28960, options [mss 1460,sackOK,TS val 100237935 ecr 1381854954,nop,wscale 7], length 0
	0x0000:  4201 0a92 2806 4201 0a92 2801 0800 4500
	0x0010:  003c 0000 4000 2306 7581 c092 ef10 0a92
	0x0020:  2806 1629 8e26 5ba5 87ce b614 61cf a012
	0x0030:  7120 0b3d 0000 0204 05b4 0402 080a 05f9
	0x0040:  826f 525d 6eea 0103 0307
09:13:01.762526 IP (tos 0x0, ttl 64, id 59463, offset 0, flags [DF], proto TCP (6), length 52)
    ksat-api-sv-1.c.syns-sol-grdsys-internal-prod.internal.36390 > 192.146.239.16.5673: Flags [.], cksum 0xe261 (incorrect -> 0xa81e), seq 1, ack 1, win 511, options [nop,nop,TS val 1381855222 ecr 100237935], length 0
	0x0000:  4201 0a92 2801 4201 0a92 2806 0800 4500
	0x0010:  0034 e847 4000 4006 7041 0a92 2806 c092
	0x0020:  ef10 8e26 1629 b614 61cf 5ba5 87cf 8010
	0x0030:  01ff e261 0000 0101 080a 525d 6ff6 05f9
	0x0040:  826f
09:13:01.762831 IP (tos 0x0, ttl 64, id 59464, offset 0, flags [DF], proto TCP (6), length 263)
    ksat-api-sv-1.c.syns-sol-grdsys-internal-prod.internal.36390 > 192.146.239.16.5673: Flags [P.], cksum 0xe334 (incorrect -> 0x55ad), seq 1:212, ack 1, win 511, options [nop,nop,TS val 1381855222 ecr 100237935], length 211
	0x0000:  4201 0a92 2801 4201 0a92 2806 0800 4500
	0x0010:  0107 e848 4000 4006 6f6d 0a92 2806 c092
	0x0020:  ef10 8e26 1629 b614 61cf 5ba5 87cf 8018
	0x0030:  01ff e334 0000 0101 080a 525d 6ff6 05f9
	0x0040:  826f 1603 0100 ce01 0000 ca03 0367 2d5d
	0x0050:  354f 02c3 6346 2399 c9dd 1577 ebf3 3b1e
	0x0060:  dbca 58cf 2d6c 27b8 bab5 90af 1520 e28c
	0x0070:  154b 3ebf f9a9 b699 2648 81eb fc5e da76
	0x0080:  bb94 1680 05ff a6b6 a9ff 6e45 6ed0 0020
	0x0090:  c02f c030 c02b c02c cca8 cca9 c013 c009
	0x00a0:  c014 c00a 009c 009d 002f 0035 c012 000a
	0x00b0:  0100 0061 0000 0010 000e 0000 0b61 7069
	0x00c0:  2e6b 7361 742e 6e6f 0005 0005 0100 0000
	0x00d0:  0000 0a00 0a00 0800 1d00 1700 1800 1900
	0x00e0:  0b00 0201 0000 0d00 1800 1608 0408 0508
	0x00f0:  0604 0104 0305 0105 0306 0106 0302 0102
	0x0100:  03ff 0100 0100 0012 0000 002b 0007 0603
	0x0110:  0303 0203 01
09:13:02.032509 IP (tos 0x0, ttl 35, id 1406, offset 0, flags [DF], proto TCP (6), length 2868)
    192.146.239.16.5673 > ksat-api-sv-1.c.syns-sol-grdsys-internal-prod.internal.36390: Flags [.], cksum 0xed61 (incorrect -> 0x8a42), seq 1:2817, ack 212, win 235, options [nop,nop,TS val 100238002 ecr 1381855222], length 2816
	0x0000:  4201 0a92 2806 4201 0a92 2801 0800 4500
	0x0010:  0b34 057e 4000 2306 650b c092 ef10 0a92
	0x0020:  2806 1629 8e26 5ba5 87cf b614 62a2 8010
	0x0030:  00eb ed61 0000 0101 080a 05f9 82b2 525d
	0x0040:  6ff6 1603 0300 5d02 0000 5903 03dd 8654
	0x0050:  1cfc c5a7 affa 93eb 71ba 97bd 4a36 1442
	0x0060:  d385 2f13 6299 2617 14b1 f77f fd20 323b
	0x0070:  f26c 25fc 05b3 f3ee 76fe f9d9 563b 3a87
	0x0080:  9269 4d39 ee3e d069 d209 f6af cf27 c030
	0x0090:  0000 1100 0000 00ff 0100 0100 000b 0004
	0x00a0:  0300 0102 1603 030b c50b 000b c100 0bbe
	0x00b0:  0006 b930 8206 b530 8205 9da0 0302 0102
	0x00c0:  0210 0c5e b3c6 657e e106 1da9 dddd 0b00
	0x00d0:  d159 300d 0609 2a86 4886 f70d 0101 0b05
	0x00e0:  0030 6431 0b30 0906 0355 0406 1302 4e4c
	0x00f0:  3116 3014 0603 5504 0813 0d4e 6f6f 7264
	0x0100:  2d48 6f6c 6c61 6e64 3112 3010 0603 5504
	0x0110:  0713 0941 6d73 7465 7264 616d 310f 300d
	0x0120:  0603 5504 0a13 0654 4552 454e 4131 1830
	0x0130:  1606 0355 0403 130f 5445 5245 4e41 2053
	0x0140:  534c 2043 4120 3330 1e17 0d31 3930 3831
	0x0150:  3330 3030 3030 305a 170d 3231 3038 3137
	0x0160:  3132 3030 3030 5a30 6f31 0b30 0906 0355
	0x0170:  0406 1302 4e4f 3110 300e 0603 5504 070c
	0x0180:  0754 726f 6d73 c3b8 3128 3026 0603 5504
	0x0190:  0a13 1f4b 6f6e 6773 6265 7267 2053 6174
	0x01a0:  656c 6c69 7465 2053 6572 7669 6365 7320
	0x01b0:  4153 310c 300a 0603 5504 0b13 0353 4f50
	0x01c0:  3116 3014 0603 5504 030c 0d2a 2e61 7069
	0x01d0:  2e6b 7361 742e 6e6f 3082 0122 300d 0609
	0x01e0:  2a86 4886 f70d 0101 0105 0003 8201 0f00
	0x01f0:  3082 010a 0282 0101 00aa 4c53 40cf 6607
	0x0200:  ea00 ddfe 5fe1 15bd e735 a5f7 c63a 820d
	0x0210:  58b1 ff35 5cea 1678 2155 55b4 4bd5 88a3
	0x0220:  0ee2 e24e 8301 eef5 80b2 13ae ac98 85c1
	0x0230:  1b96 93c4 e8a3 5298 c10d e51c b9dc f19f
	0x0240:  067b 2672 9a39 1011 1519 70e0 348b 6e85
	0x0250:  1a77 16de bfdb 962b 988e 875c c53b 19df
	0x0260:  9295 37f2 872a 3918 e7e0 fb23 bc1b b075
	0x0270:  ad60 23aa 3b00 0334 02d7 fa71 88d1 953d
	0x0280:  ca13 434d 2abc e4c0 df96 c9d2 2e7e 9122
	0x0290:  498a 538c 8ee8 e0a9 2237 575e 72e5 3f0e
	0x02a0:  fca7 eefe df35 a70c 30ff 17cb f420 08d3
	0x02b0:  0b8d adda 7bb5 6e37 14a4 532d 57a6 c53b
	0x02c0:  f6f9 82dc ebd8 66f3 ffd1 982b ee81 9250
	0x02d0:  85f9 6b27 816d 0816 77ec f150 3084 418d
	0x02e0:  7870 0ed0 f496 1faa bd40 bc9f c164 a26c
	0x02f0:  39cf b700 38ca ebfd e102 0301 0001 a382
	0x0300:  0356 3082 0352 301f 0603 551d 2304 1830
	0x0310:  1680 1467 fd88 2014 2798 c709 d225 19bb
	0x0320:  e951 1163 7550 6230 1d06 0355 1d0e 0416
	0x0330:  0414 d223 e4b2 a3df c0ca 0a1a c594 84c8
	0x0340:  7c1b ed33 6e6d 3025 0603 551d 1104 1e30
	0x0350:  1c82 0d2a 2e61 7069 2e6b 7361 742e 6e6f
	0x0360:  820b 6170 692e 6b73 6174 2e6e 6f30 0e06
	0x0370:  0355 1d0f 0101 ff04 0403 0205 a030 1d06
	0x0380:  0355 1d25 0416 3014 0608 2b06 0105 0507
	0x0390:  0301 0608 2b06 0105 0507 0302 306b 0603
	0x03a0:  551d 1f04 6430 6230 2fa0 2da0 2b86 2968
	0x03b0:  7474 703a 2f2f 6372 6c33 2e64 6967 6963
	0x03c0:  6572 742e 636f 6d2f 5445 5245 4e41 5353
	0x03d0:  4c43 4133 2e63 726c 302f a02d a02b 8629
	0x03e0:  6874 7470 3a2f 2f63 726c 342e 6469 6769
	0x03f0:  6365 7274 2e63 6f6d 2f54 4552 454e 4153
	0x0400:  534c 4341 332e 6372 6c30 4c06 0355 1d20
	0x0410:  0445 3043 3037 0609 6086 4801 86fd 6c01
	0x0420:  0130 2a30 2806 082b 0601 0505 0702 0116
	0x0430:  1c68 7474 7073 3a2f 2f77 7777 2e64 6967
	0x0440:  6963 6572 742e 636f 6d2f 4350 5330 0806
	0x0450:  0667 810c 0102 0230 6e06 082b 0601 0505
	0x0460:  0701 0104 6230 6030 2406 082b 0601 0505
	0x0470:  0730 0186 1868 7474 703a 2f2f 6f63 7370
	0x0480:  2e64 6967 6963 6572 742e 636f 6d30 3806
	0x0490:  082b 0601 0505 0730 0286 2c68 7474 703a
	0x04a0:  2f2f 6361 6365 7274 732e 6469 6769 6365
	0x04b0:  7274 2e63 6f6d 2f54 4552 454e 4153 534c
	0x04c0:  4341 332e 6372 7430 0c06 0355 1d13 0101
	0x04d0:  ff04 0230 0030 8201 7f06 0a2b 0601 0401
	0x04e0:  d679 0204 0204 8201 6f04 8201 6b01 6900
	0x04f0:  7700 bbd9 dfbc 1f8a 71b5 9394 2397 aa92
	0x0500:  7b47 3857 950a ab52 e81a 9096 6436 8e1e
	0x0510:  d185 0000 016c 8b74 39f8 0000 0403 0048
	0x0520:  3046 0221 0084 69d6 31fd 48b1 81ea df90
	0x0530:  0bd7 08e3 dbc3 2da8 de8b e775 912b 8631
	0x0540:  1d85 8e0d 0c02 2100 a2be 1bb4 b64e 5b69
	0x0550:  1a87 2c3d 3e13 1ec9 6bd3 1747 43b5 9fb8
	0x0560:  8c7a 8b46 d50a 9b98 0077 0087 75bf e759
	0x0570:  7cf8 8c43 995f bdf3 6eff 568d 4756 36ff
	0x0580:  4ab5 60c1 b4ea ff5e a083 0f00 0001 6c8b
	0x0590:  743a 6b00 0004 0300 4830 4602 2100 dd66
	0x05a0:  29b8 dd1a 1f61 3252 4468 a2e9 dce3 69b3
	0x05b0:  906e 5b29 8da6 963e 7bc5 8f8e 6bfd 0221
	0x05c0:  00f0 5a09 bf14 c2f5 fd5a 587e 751a b814
	0x05d0:  c653 0205 4493 f388 3737 df14 8fc6 382e
	0x05e0:  1800 7500 4494 652e b0ee ceaf c440 07d8
	0x05f0:  a8fe 28c0 dae6 82be d8cb 31b5 3fd3 3396
	0x0600:  b5b6 81a8 0000 016c 8b74 396c 0000 0403
	0x0610:  0046 3044 0220 5472 7994 65b2 fd20 9bd4
	0x0620:  87dd 00e9 d8ba 888c 6d11 439b 9756 3093
	0x0630:  cc02 2d89 a34b 0220 30c4 c6e8 aee0 1fb6
	0x0640:  1c24 6b44 bbe2 233a ec52 1f95 81f4 35e3
	0x0650:  6ed3 f3ce 4a0d cd1d 300d 0609 2a86 4886
	0x0660:  f70d 0101 0b05 0003 8201 0100 53f9 f7e7
	0x0670:  9afa 5ba8 460c d6ae 40a7 967a b2cb 5929
	0x0680:  c0e1 2f0d ae82 c956 3af3 b714 cd0a b764
	0x0690:  3677 1b44 2bd9 e54d e909 bdc0 c69a ad44
	0x06a0:  eb63 84e7 6a71 96be ea87 27d9 a1ec dbdd
	0x06b0:  367e 8b67 cb70 80e0 565d 3e08 e941 6eb5
	0x06c0:  9721 3b65 7812 03e4 ccfd 0d33 73b9 a8de
	0x06d0:  932f 9e00 6233 6aba 906b 7511 0adb 7f83
	0x06e0:  6a4e 70cd 7fae c4a5 e162 0fc2 23f9 4027
	0x06f0:  1dd8 1171 4a40 f281 b412 298c 80b9 04c0
	0x0700:  dba8 f36a c1f2 6830 f4ca 4714 5fb7 ca59
	0x0710:  5b92 81dd ccd8 407e e219 b4fb 9c05 2abb
	0x0720:  5da0 38e5 3bb1 5a20 8a75 80e2 2128 c1c6
	0x0730:  8e23 3d04 9591 2636 d5da 7b21 d928 feba
	0x0740:  37d6 4ce0 af25 08ac daf2 34a8 d274 1e2c
	0x0750:  91b3 08b9 4cd8 fc4c 7f59 cc55 16ae 3000
	0x0760:  fb99 d9c3 a2e2 fb6e 8feb f0c0 0004 ff30
	0x0770:  8204 fb30 8203 e3a0 0302 0102 0210 0870
	0x0780:  bcc5 af3f db95 9a91 cb6a eeef e465 300d
	0x0790:  0609 2a86 4886 f70d 0101 0b05 0030 6531
	0x07a0:  0b30 0906 0355 0406 1302 5553 3115 3013
	0x07b0:  0603 5504 0a13 0c44 6967 6943 6572 7420
	0x07c0:  496e 6331 1930 1706 0355 040b 1310 7777
	0x07d0:  772e 6469 6769 6365 7274 2e63 6f6d 3124
	0x07e0:  3022 0603 5504 0313 1b44 6967 6943 6572
	0x07f0:  7420 4173 7375 7265 6420 4944 2052 6f6f
	0x0800:  7420 4341 301e 170d 3134 3131 3138 3132
	0x0810:  3030 3030 5a17 0d32 3431 3131 3831 3230
	0x0820:  3030 305a 3064 310b 3009 0603 5504 0613
	0x0830:  024e 4c31 1630 1406 0355 0408 130d 4e6f
	0x0840:  6f72 642d 486f 6c6c 616e 6431 1230 1006
	0x0850:  0355 0407 1309 416d 7374 6572 6461 6d31
	0x0860:  0f30 0d06 0355 040a 1306 5445 5245 4e41
	0x0870:  3118 3016 0603 5504 0313 0f54 4552 454e
	0x0880:  4120 5353 4c20 4341 2033 3082 0122 300d
	0x0890:  0609 2a86 4886 f70d 0101 0105 0003 8201
	0x08a0:  0f00 3082 010a 0282 0101 00c5 760f 0fd9
	0x08b0:  4329 3b6c 6dd1 47ad de10 bf23 c278 a84a
	0x08c0:  7735 f123 5be0 4c1e 41e7 c231 00bd 8837
	0x08d0:  4575 ddb9 0210 801e 8fed 6423 0445 a7a0
	0x08e0:  393b 814d cf63 3fc2 49ff 229e 88b0 d296
	0x08f0:  b95c 8a74 1f92 2a2a f212 c8b7 6854 b558
	0x0900:  4181 4068 061a 4f85 29fb b54d 3c0f 4f3f
	0x0910:  4096 1bce a8cc 5e35 ff64 98f5 75dd 7454
	0x0920:  05a0 3611 0412 2455 63ef 9477 2e77 f115
	0x0930:  76ee d3a4 5945 219f a8be d127 ed0a e8ab
	0x0940:  38ca 3f87 d1da f18f b90b 1f44 e7e0 adf3
	0x0950:  95c2 164d ec84 a33a 92d4 cfc6 7de6 bdcb
	0x0960:  1a40 4fb3 54b1 f38f 6f0d 1ee3 be49 a356
	0x0970:  e407 bc8d a7ce 1db0 5b57 56d1 c41c fc98
	0x0980:  65d1 cd46 2f91 94bf 4585 49f8 6d52 871c
	0x0990:  0256 0127 16ab 722e f471 e461 b520 a0fa
	0x09a0:  2669 6a0a f1ab 9f6d b7cf 2502 0301 0001
	0x09b0:  a382 01a6 3082 01a2 3012 0603 551d 1301
	0x09c0:  01ff 0408 3006 0101 ff02 0100 300e 0603
	0x09d0:  551d 0f01 01ff 0404 0302 0186 3079 0608
	0x09e0:  2b06 0105 0507 0101 046d 306b 3024 0608
	0x09f0:  2b06 0105 0507 3001 8618 6874 7470 3a2f
	0x0a00:  2f6f 6373 702e 6469 6769 6365 7274 2e63
	0x0a10:  6f6d 3043 0608 2b06 0105 0507 3002 8637
	0x0a20:  6874 7470 3a2f 2f63 6163 6572 7473 2e64
	0x0a30:  6967 6963 6572 742e 636f 6d2f 4469 6769
	0x0a40:  4365 7274 4173 7375 7265 6449 4452 6f6f
	0x0a50:  7443 412e 6372 7430 8181 0603 551d 1f04
	0x0a60:  7a30 7830 3aa0 38a0 3686 3468 7474 703a
	0x0a70:  2f2f 6372 6c33 2e64 6967 6963 6572 742e
	0x0a80:  636f 6d2f 4469 6769 4365 7274 4173 7375
	0x0a90:  7265 6449 4452 6f6f 7443 412e 6372 6c30
	0x0aa0:  3aa0 38a0 3686 3468 7474 703a 2f2f 6372
	0x0ab0:  6c34 2e64 6967 6963 6572 742e 636f 6d2f
	0x0ac0:  4469 6769 4365 7274 4173 7375 7265 6449
	0x0ad0:  4452 6f6f 7443 412e 6372 6c30 3d06 0355
	0x0ae0:  1d20 0436 3034 3032 0604 551d 2000 302a
	0x0af0:  3028 0608 2b06 0105 0507 0201 161c 6874
	0x0b00:  7470 733a 2f2f 7777 772e 6469 6769 6365
	0x0b10:  7274 2e63 6f6d 2f43 5053 301d 0603 551d
	0x0b20:  0e04 1604 1467 fd88 2014 2798 c709 d225
	0x0b30:  19bb e951 1163 7550 6230 1f06 0355 1d23
	0x0b40:  0418
09:13:02.032574 IP (tos 0x0, ttl 64, id 59465, offset 0, flags [DF], proto TCP (6), length 52)
    ksat-api-sv-1.c.syns-sol-grdsys-internal-prod.internal.36390 > 192.146.239.16.5673: Flags [.], cksum 0xe261 (incorrect -> 0x9b0a), seq 212, ack 2817, win 495, options [nop,nop,TS val 1381855492 ecr 100238002], length 0
	0x0000:  4201 0a92 2801 4201 0a92 2806 0800 4500
	0x0010:  0034 e849 4000 4006 703f 0a92 2806 c092
	0x0020:  ef10 8e26 1629 b614 62a2 5ba5 92cf 8010
	0x0030:  01ef e261 0000 0101 080a 525d 7104 05f9
	0x0040:  82b2
09:13:02.032579 IP (tos 0x0, ttl 35, id 1408, offset 0, flags [DF], proto TCP (6), length 699)
    192.146.239.16.5673 > ksat-api-sv-1.c.syns-sol-grdsys-internal-prod.internal.36390: Flags [P.], cksum 0x0c1f (correct), seq 2817:3464, ack 212, win 235, options [nop,nop,TS val 100238002 ecr 1381855222], length 647
	0x0000:  4201 0a92 2806 4201 0a92 2801 0800 4500
	0x0010:  02bb 0580 4000 2306 6d82 c092 ef10 0a92
	0x0020:  2806 1629 8e26 5ba5 92cf b614 62a2 8018
	0x0030:  00eb 0c1f 0000 0101 080a 05f9 82b2 525d
	0x0040:  6ff6 3016 8014 45eb a2af f492 cb82 312d
	0x0050:  518b a7a7 219d f36d c80f 300d 0609 2a86
	0x0060:  4886 f70d 0101 0b05 0003 8201 0100 a928
	0x0070:  357a c47b d6da 271e ac98 cf27 364f 1132
	0x0080:  7474 e640 dd1d cdf2 6877 35af b38c 5dc6
	0x0090:  04bf 15f4 2367 8bb9 6f97 04eb 469d c2cd
	0x00a0:  c9d1 a4ae 812e c9ba b1e8 80d0 1cc9 39c1
	0x00b0:  5676 596c 9c7d e3a9 f0d3 d134 d83c 4959
	0x00c0:  8b1a 98ce bfc6 f2d8 3035 ffe9 6f5d a0af
	0x00d0:  3aee 6653 aeaa 8c69 c8be 9aa7 a07b d882
	0x00e0:  4b33 13c8 07f3 77d7 f364 cd9e 63f9 4227
	0x00f0:  53ae 1033 8972 3715 f1be f71e 35a2 cec3
	0x0100:  2df2 d7b2 e60b c769 c0e5 1f5f 7c69 9b7e
	0x0110:  ce26 1a33 44c3 ba77 053b ba5d 3f41 89fa
	0x0120:  163b ee04 6e5b ac56 4bef 8c70 f24a 7b57
	0x0130:  bd19 6e8b 3607 5426 2d86 0994 1f5f 37ab
	0x0140:  f023 3f8f 2c5f 969e 4771 a844 dea9 b985
	0x0150:  2fb5 3460 a55f 09a0 9a43 1dd4 bf2d 44d6
	0x0160:  8dda fd75 cb5f 16a0 0e61 c270 3d36 1603
	0x0170:  0301 4d0c 0001 4903 0017 4104 343b 7710
	0x0180:  e9a7 8b8b 9cb9 d5e5 a38d bbe0 b46a 6989
	0x0190:  f3a3 d71c 1ab7 120f 23d5 989a afd7 e80f
	0x01a0:  155a a99b 80b6 a5f6 6ac1 7369 4af9 2992
	0x01b0:  270d 99ee 5fab 4dca 3267 41b2 0601 0100
	0x01c0:  5cd0 e007 8e0b f48d 4c6d 757f a258 36b4
	0x01d0:  5dfd 1774 29ba e001 8663 6735 a03e cdca
	0x01e0:  cba8 2849 9a1d b9cb b95c 80da ef94 b69a
	0x01f0:  f0cf a646 f3f5 f54d 945f bb3e ecde 8193
	0x0200:  2ca4 d59a 458b 2c97 d284 3059 7632 2ede
	0x0210:  273e 9c04 a077 9ca2 3f0c e197 b9c4 1352
	0x0220:  3ed0 90a9 8e62 ebf1 e016 53ff b16b cb51
	0x0230:  35cb f218 b360 7ec5 b569 70a3 7fde 7d93
	0x0240:  b009 03d9 8169 6509 1df1 6721 08b7 6c57
	0x0250:  a866 b4a2 5ad3 f01f 6271 95b9 2a25 2fb8
	0x0260:  db33 a99b c6ec 733d a56d 8cc3 ce7c 746a
	0x0270:  a4e7 8b43 8131 a54e 2c3a aaac 830b ef5f
	0x0280:  3fa4 8805 3262 fc52 c10d 3a8c e55c 79b2
	0x0290:  4910 c102 4b7a ac54 26c5 5abf 5a7b 94a4
	0x02a0:  b579 65e9 f51a 951b 0149 9857 cd99 9978
	0x02b0:  4fbe a62d 9f29 8087 eb4e facd 2687 fdbe
	0x02c0:  1603 0300 040e 0000 00
09:13:02.032588 IP (tos 0x0, ttl 64, id 59466, offset 0, flags [DF], proto TCP (6), length 52)
    ksat-api-sv-1.c.syns-sol-grdsys-internal-prod.internal.36390 > 192.146.239.16.5673: Flags [.], cksum 0xe261 (incorrect -> 0x9888), seq 212, ack 3464, win 490, options [nop,nop,TS val 1381855492 ecr 100238002], length 0
	0x0000:  4201 0a92 2801 4201 0a92 2806 0800 4500
	0x0010:  0034 e84a 4000 4006 703e 0a92 2806 c092
	0x0020:  ef10 8e26 1629 b614 62a2 5ba5 9556 8010
	0x0030:  01ea e261 0000 0101 080a 525d 7104 05f9
	0x0040:  82b2
09:13:02.085089 IP (tos 0x0, ttl 64, id 59467, offset 0, flags [DF], proto TCP (6), length 178)
    ksat-api-sv-1.c.syns-sol-grdsys-internal-prod.internal.36390 > 192.146.239.16.5673: Flags [P.], cksum 0xe2df (incorrect -> 0xd0eb), seq 212:338, ack 3464, win 501, options [nop,nop,TS val 1381855544 ecr 100238002], length 126
	0x0000:  4201 0a92 2801 4201 0a92 2806 0800 4500
	0x0010:  00b2 e84b 4000 4006 6fbf 0a92 2806 c092
	0x0020:  ef10 8e26 1629 b614 62a2 5ba5 9556 8018
	0x0030:  01f5 e2df 0000 0101 080a 525d 7138 05f9
	0x0040:  82b2 1603 0300 4610 0000 4241 0447 b5fa
	0x0050:  c1c9 a84c c5f2 286b 6dd0 8851 8e02 81f0
	0x0060:  4e2c a0e9 9934 7b61 2b5a ed8c 2129 337d
	0x0070:  71a9 0178 f61f 4449 f3d0 ab86 c5ab de39
	0x0080:  9732 d2e6 3952 23ce a02e ebff 4014 0303
	0x0090:  0001 0116 0303 0028 0000 0000 0000 0000
	0x00a0:  931b 88ab c614 fa49 0154 ba87 5b40 385a
	0x00b0:  652b 63dd e6ed a3a8 5c26 ef80 7f42 c5cf
09:13:02.351630 IP (tos 0x0, ttl 35, id 1409, offset 0, flags [DF], proto TCP (6), length 103)
    192.146.239.16.5673 > ksat-api-sv-1.c.syns-sol-grdsys-internal-prod.internal.36390: Flags [P.], cksum 0x2919 (correct), seq 3464:3515, ack 338, win 235, options [nop,nop,TS val 100238082 ecr 1381855544], length 51
	0x0000:  4201 0a92 2806 4201 0a92 2801 0800 4500
	0x0010:  0067 0581 4000 2306 6fd5 c092 ef10 0a92
	0x0020:  2806 1629 8e26 5ba5 9556 b614 6320 8018
	0x0030:  00eb 2919 0000 0101 080a 05f9 8302 525d
	0x0040:  7138 1403 0300 0101 1603 0300 28f9 e58c
	0x0050:  d906 9322 b0f9 c200 9a54 a7b3 f377 1074
	0x0060:  82cb 4e11 84b9 cd20 c1ae a3f5 9ce1 d5c9
	0x0070:  832a 8e59 fe
09:13:02.351684 IP (tos 0x0, ttl 64, id 59468, offset 0, flags [DF], proto TCP (6), length 52)
    ksat-api-sv-1.c.syns-sol-grdsys-internal-prod.internal.36390 > 192.146.239.16.5673: Flags [.], cksum 0xe261 (incorrect -> 0x963d), seq 338, ack 3515, win 501, options [nop,nop,TS val 1381855811 ecr 100238082], length 0
	0x0000:  4201 0a92 2801 4201 0a92 2806 0800 4500
	0x0010:  0034 e84c 4000 4006 703c 0a92 2806 c092
	0x0020:  ef10 8e26 1629 b614 6320 5ba5 9589 8010
	0x0030:  01f5 e261 0000 0101 080a 525d 7243 05f9
	0x0040:  8302
09:13:02.351887 IP (tos 0x0, ttl 64, id 59469, offset 0, flags [DF], proto TCP (6), length 89)
    ksat-api-sv-1.c.syns-sol-grdsys-internal-prod.internal.36390 > 192.146.239.16.5673: Flags [P.], cksum 0xe286 (incorrect -> 0x2800), seq 338:375, ack 3515, win 501, options [nop,nop,TS val 1381855811 ecr 100238082], length 37
	0x0000:  4201 0a92 2801 4201 0a92 2806 0800 4500
	0x0010:  0059 e84d 4000 4006 7016 0a92 2806 c092
	0x0020:  ef10 8e26 1629 b614 6320 5ba5 9589 8018
	0x0030:  01f5 e286 0000 0101 080a 525d 7243 05f9
	0x0040:  8302 1703 0300 2000 0000 0000 0000 01a8
	0x0050:  7a27 18f9 02a5 94ef 928d 8651 9251 e4cc
	0x0060:  1176 3171 edca 47
09:13:02.657532 IP (tos 0x0, ttl 35, id 1410, offset 0, flags [DF], proto TCP (6), length 52)
    192.146.239.16.5673 > ksat-api-sv-1.c.syns-sol-grdsys-internal-prod.internal.36390: Flags [.], cksum 0x96d5 (correct), seq 3515, ack 375, win 235, options [nop,nop,TS val 100238159 ecr 1381855811], length 0
	0x0000:  4201 0a92 2806 4201 0a92 2801 0800 4500
	0x0010:  0034 0582 4000 2306 7007 c092 ef10 0a92
	0x0020:  2806 1629 8e26 5ba5 9589 b614 6345 8010
	0x0030:  00eb 96d5 0000 0101 080a 05f9 834f 525d
	0x0040:  7243
09:13:05.357755 IP (tos 0x0, ttl 35, id 1411, offset 0, flags [DF], proto TCP (6), length 83)
    192.146.239.16.5673 > ksat-api-sv-1.c.syns-sol-grdsys-internal-prod.internal.36390: Flags [P.], cksum 0xc494 (correct), seq 3515:3546, ack 375, win 235, options [nop,nop,TS val 100238834 ecr 1381855811], length 31
	0x0000:  4201 0a92 2806 4201 0a92 2801 0800 4500
	0x0010:  0053 0583 4000 2306 6fe7 c092 ef10 0a92
	0x0020:  2806 1629 8e26 5ba5 9589 b614 6345 8018
	0x0030:  00eb c494 0000 0101 080a 05f9 85f2 525d
	0x0040:  7243 1503 0300 1af9 e58c d906 9322 b194
	0x0050:  8e6f 36be 90e1 c363 aaa9 a9a2 d09c 71d2
	0x0060:  e9
09:13:05.357811 IP (tos 0x0, ttl 64, id 59470, offset 0, flags [DF], proto TCP (6), length 52)
    ksat-api-sv-1.c.syns-sol-grdsys-internal-prod.internal.36390 > 192.146.239.16.5673: Flags [.], cksum 0xe261 (incorrect -> 0x874b), seq 375, ack 3546, win 501, options [nop,nop,TS val 1381858817 ecr 100238834], length 0
	0x0000:  4201 0a92 2801 4201 0a92 2806 0800 4500
	0x0010:  0034 e84e 4000 4006 703a 0a92 2806 c092
	0x0020:  ef10 8e26 1629 b614 6345 5ba5 95a8 8010
	0x0030:  01f5 e261 0000 0101 080a 525d 7e01 05f9
	0x0040:  85f2
09:13:05.357939 IP (tos 0x0, ttl 35, id 1412, offset 0, flags [DF], proto TCP (6), length 52)
    192.146.239.16.5673 > ksat-api-sv-1.c.syns-sol-grdsys-internal-prod.internal.36390: Flags [F.], cksum 0x9412 (correct), seq 3546, ack 375, win 235, options [nop,nop,TS val 100238834 ecr 1381855811], length 0
	0x0000:  4201 0a92 2806 4201 0a92 2801 0800 4500
	0x0010:  0034 0584 4000 2306 7005 c092 ef10 0a92
	0x0020:  2806 1629 8e26 5ba5 95a8 b614 6345 8011
	0x0030:  00eb 9412 0000 0101 080a 05f9 85f2 525d
	0x0040:  7243
09:13:05.357944 IP (tos 0x0, ttl 64, id 59471, offset 0, flags [DF], proto TCP (6), length 83)
    ksat-api-sv-1.c.syns-sol-grdsys-internal-prod.internal.36390 > 192.146.239.16.5673: Flags [P.], cksum 0xe280 (incorrect -> 0x97dc), seq 375:406, ack 3546, win 501, options [nop,nop,TS val 1381858817 ecr 100238834], length 31
	0x0000:  4201 0a92 2801 4201 0a92 2806 0800 4500
	0x0010:  0053 e84f 4000 4006 701a 0a92 2806 c092
	0x0020:  ef10 8e26 1629 b614 6345 5ba5 95a8 8018
	0x0030:  01f5 e280 0000 0101 080a 525d 7e01 05f9
	0x0040:  85f2 1503 0300 1a00 0000 0000 0000 026e
	0x0050:  31fb 7bbb 39ca 53a0 591b 965f 92fa 6c3f
	0x0060:  91
09:13:05.357968 IP (tos 0x0, ttl 64, id 59472, offset 0, flags [DF], proto TCP (6), length 52)
    ksat-api-sv-1.c.syns-sol-grdsys-internal-prod.internal.36390 > 192.146.239.16.5673: Flags [F.], cksum 0xe261 (incorrect -> 0x872a), seq 406, ack 3547, win 501, options [nop,nop,TS val 1381858817 ecr 100238834], length 0
	0x0000:  4201 0a92 2801 4201 0a92 2806 0800 4500
	0x0010:  0034 e850 4000 4006 7038 0a92 2806 c092
	0x0020:  ef10 8e26 1629 b614 6364 5ba5 95a9 8011
	0x0030:  01f5 e261 0000 0101 080a 525d 7e01 05f9
	0x0040:  85f2
09:13:05.624153 IP (tos 0x0, ttl 35, id 21098, offset 0, flags [DF], proto TCP (6), length 40)
    192.146.239.16.5673 > ksat-api-sv-1.c.syns-sol-grdsys-internal-prod.internal.36390: Flags [R], cksum 0x3807 (correct), seq 1537578409, win 0, length 0
	0x0000:  4201 0a92 2806 4201 0a92 2801 0800 4500
	0x0010:  0028 526a 4000 2306 232b c092 ef10 0a92
	0x0020:  2806 1629 8e26 5ba5 95a9 0000 0000 5004
	0x0030:  0000 3807 0000

