09:07:02.152404 IP (tos 0x0, ttl 64, id 6413, offset 0, flags [DF], proto TCP (6), length 263)
    ksat-api-sv-1.c.syns-sol-grdsys-internal-prod.internal.36346 > 192.146.239.16.5673: Flags [P.], cksum 0xe334 (incorrect -> 0x6eb8), seq 1654691967:1654692178, ack 1167741077, win 511, options [nop,nop,TS val 1381495611 ecr 100148032], length 211
	0x0000:  4201 0a92 2801 4201 0a92 2806 0800 4500
	0x0010:  0107 190d 4000 4006 3ea9 0a92 2806 c092
	0x0020:  ef10 8dfa 1629 62a0 987f 459a 5095 8018
	0x0030:  01ff e334 0000 0101 080a 5257 f33b 05f8
	0x0040:  2340 1603 0100 ce01 0000 ca03 035c d3e0
	0x0050:  c84e 4a78 e700 96a6 449c bf0d 5334 44b4
	0x0060:  a848 acdb ea40 2005 1344 ba64 ae20 f1b0
	0x0070:  3345 8fdf a7e3 54f7 207d f7e3 bc39 d0e5
	0x0080:  43fc 7879 9ada cfa6 380e 748b 700c 0020
	0x0090:  c02f c030 c02b c02c cca8 cca9 c013 c009
	0x00a0:  c014 c00a 009c 009d 002f 0035 c012 000a
	0x00b0:  0100 0061 0000 0010 000e 0000 0b61 7069
	0x00c0:  2e6b 7361 742e 6e6f 0005 0005 0100 0000
	0x00d0:  0000 0a00 0a00 0800 1d00 1700 1800 1900
	0x00e0:  0b00 0201 0000 0d00 1800 1608 0408 0508
	0x00f0:  0604 0104 0305 0105 0306 0106 0302 0102
	0x0100:  03ff 0100 0100 0012 0000 002b 0007 0603
	0x0110:  0303 0203 01
09:07:02.417399 IP (tos 0x0, ttl 35, id 29463, offset 0, flags [DF], proto TCP (6), length 1460)
    192.146.239.16.5673 > ksat-api-sv-1.c.syns-sol-grdsys-internal-prod.internal.36346: Flags [.], cksum 0x0f93 (correct), seq 1:1409, ack 211, win 235, options [nop,nop,TS val 100148099 ecr 1381495611], length 1408
	0x0000:  4201 0a92 2806 4201 0a92 2801 0800 4500
	0x0010:  05b4 7317 4000 2306 fcf1 c092 ef10 0a92
	0x0020:  2806 1629 8dfa 459a 5095 62a0 9952 8010
	0x0030:  00eb 0f93 0000 0101 080a 05f8 2383 5257
	0x0040:  f33b 1603 0300 5d02 0000 5903 034f 28fe
	0x0050:  ad8a cda9 dcd1 daf3 381c 84b0 98e2 82ab
	0x0060:  0fdf 314f d23d 2a4c 8611 bc12 6320 7183
	0x0070:  707e fef4 cbf7 8b3c b729 b527 d0df 3dab
	0x0080:  ccc1 c688 b538 3244 64c8 c6c7 bad4 c030
	0x0090:  0000 1100 0000 00ff 0100 0100 000b 0004
	0x00a0:  0300 0102 1603 030b c50b 000b c100 0bbe
	0x00b0:  0006 b930 8206 b530 8205 9da0 0302 0102
	0x00c0:  0210 0c5e b3c6 657e e106 1da9 dddd 0b00
	0x00d0:  d159 300d 0609 2a86 4886 f70d 0101 0b05
	0x00e0:  0030 6431 0b30 0906 0355 0406 1302 4e4c
	0x00f0:  3116 3014 0603 5504 0813 0d4e 6f6f 7264
	0x0100:  2d48 6f6c 6c61 6e64 3112 3010 0603 5504
	0x0110:  0713 0941 6d73 7465 7264 616d 310f 300d
	0x0120:  0603 5504 0a13 0654 4552 454e 4131 1830
	0x0130:  1606 0355 0403 130f 5445 5245 4e41 2053
	0x0140:  534c 2043 4120 3330 1e17 0d31 3930 3831
	0x0150:  3330 3030 3030 305a 170d 3231 3038 3137
	0x0160:  3132 3030 3030 5a30 6f31 0b30 0906 0355
	0x0170:  0406 1302 4e4f 3110 300e 0603 5504 070c
	0x0180:  0754 726f 6d73 c3b8 3128 3026 0603 5504
	0x0190:  0a13 1f4b 6f6e 6773 6265 7267 2053 6174
	0x01a0:  656c 6c69 7465 2053 6572 7669 6365 7320
	0x01b0:  4153 310c 300a 0603 5504 0b13 0353 4f50
	0x01c0:  3116 3014 0603 5504 030c 0d2a 2e61 7069
	0x01d0:  2e6b 7361 742e 6e6f 3082 0122 300d 0609
	0x01e0:  2a86 4886 f70d 0101 0105 0003 8201 0f00
	0x01f0:  3082 010a 0282 0101 00aa 4c53 40cf 6607
	0x0200:  ea00 ddfe 5fe1 15bd e735 a5f7 c63a 820d
	0x0210:  58b1 ff35 5cea 1678 2155 55b4 4bd5 88a3
	0x0220:  0ee2 e24e 8301 eef5 80b2 13ae ac98 85c1
	0x0230:  1b96 93c4 e8a3 5298 c10d e51c b9dc f19f
	0x0240:  067b 2672 9a39 1011 1519 70e0 348b 6e85
	0x0250:  1a77 16de bfdb 962b 988e 875c c53b 19df
	0x0260:  9295 37f2 872a 3918 e7e0 fb23 bc1b b075
	0x0270:  ad60 23aa 3b00 0334 02d7 fa71 88d1 953d
	0x0280:  ca13 434d 2abc e4c0 df96 c9d2 2e7e 9122
	0x0290:  498a 538c 8ee8 e0a9 2237 575e 72e5 3f0e
	0x02a0:  fca7 eefe df35 a70c 30ff 17cb f420 08d3
	0x02b0:  0b8d adda 7bb5 6e37 14a4 532d 57a6 c53b
	0x02c0:  f6f9 82dc ebd8 66f3 ffd1 982b ee81 9250
	0x02d0:  85f9 6b27 816d 0816 77ec f150 3084 418d
	0x02e0:  7870 0ed0 f496 1faa bd40 bc9f c164 a26c
	0x02f0:  39cf b700 38ca ebfd e102 0301 0001 a382
	0x0300:  0356 3082 0352 301f 0603 551d 2304 1830
	0x0310:  1680 1467 fd88 2014 2798 c709 d225 19bb
	0x0320:  e951 1163 7550 6230 1d06 0355 1d0e 0416
	0x0330:  0414 d223 e4b2 a3df c0ca 0a1a c594 84c8
	0x0340:  7c1b ed33 6e6d 3025 0603 551d 1104 1e30
	0x0350:  1c82 0d2a 2e61 7069 2e6b 7361 742e 6e6f
	0x0360:  820b 6170 692e 6b73 6174 2e6e 6f30 0e06
	0x0370:  0355 1d0f 0101 ff04 0403 0205 a030 1d06
	0x0380:  0355 1d25 0416 3014 0608 2b06 0105 0507
	0x0390:  0301 0608 2b06 0105 0507 0302 306b 0603
	0x03a0:  551d 1f04 6430 6230 2fa0 2da0 2b86 2968
	0x03b0:  7474 703a 2f2f 6372 6c33 2e64 6967 6963
	0x03c0:  6572 742e 636f 6d2f 5445 5245 4e41 5353
	0x03d0:  4c43 4133 2e63 726c 302f a02d a02b 8629
	0x03e0:  6874 7470 3a2f 2f63 726c 342e 6469 6769
	0x03f0:  6365 7274 2e63 6f6d 2f54 4552 454e 4153
	0x0400:  534c 4341 332e 6372 6c30 4c06 0355 1d20
	0x0410:  0445 3043 3037 0609 6086 4801 86fd 6c01
	0x0420:  0130 2a30 2806 082b 0601 0505 0702 0116
	0x0430:  1c68 7474 7073 3a2f 2f77 7777 2e64 6967
	0x0440:  6963 6572 742e 636f 6d2f 4350 5330 0806
	0x0450:  0667 810c 0102 0230 6e06 082b 0601 0505
	0x0460:  0701 0104 6230 6030 2406 082b 0601 0505
	0x0470:  0730 0186 1868 7474 703a 2f2f 6f63 7370
	0x0480:  2e64 6967 6963 6572 742e 636f 6d30 3806
	0x0490:  082b 0601 0505 0730 0286 2c68 7474 703a
	0x04a0:  2f2f 6361 6365 7274 732e 6469 6769 6365
	0x04b0:  7274 2e63 6f6d 2f54 4552 454e 4153 534c
	0x04c0:  4341 332e 6372 7430 0c06 0355 1d13 0101
	0x04d0:  ff04 0230 0030 8201 7f06 0a2b 0601 0401
	0x04e0:  d679 0204 0204 8201 6f04 8201 6b01 6900
	0x04f0:  7700 bbd9 dfbc 1f8a 71b5 9394 2397 aa92
	0x0500:  7b47 3857 950a ab52 e81a 9096 6436 8e1e
	0x0510:  d185 0000 016c 8b74 39f8 0000 0403 0048
	0x0520:  3046 0221 0084 69d6 31fd 48b1 81ea df90
	0x0530:  0bd7 08e3 dbc3 2da8 de8b e775 912b 8631
	0x0540:  1d85 8e0d 0c02 2100 a2be 1bb4 b64e 5b69
	0x0550:  1a87 2c3d 3e13 1ec9 6bd3 1747 43b5 9fb8
	0x0560:  8c7a 8b46 d50a 9b98 0077 0087 75bf e759
	0x0570:  7cf8 8c43 995f bdf3 6eff 568d 4756 36ff
	0x0580:  4ab5 60c1 b4ea ff5e a083 0f00 0001 6c8b
	0x0590:  743a 6b00 0004 0300 4830 4602 2100 dd66
	0x05a0:  29b8 dd1a 1f61 3252 4468 a2e9 dce3 69b3
	0x05b0:  906e 5b29 8da6 963e 7bc5 8f8e 6bfd 0221
	0x05c0:  00f0
09:07:02.469344 IP (tos 0x0, ttl 64, id 6416, offset 0, flags [DF], proto TCP (6), length 178)
    ksat-api-sv-1.c.syns-sol-grdsys-internal-prod.internal.36346 > 192.146.239.16.5673: Flags [P.], cksum 0xe2df (incorrect -> 0x3058), seq 211:337, ack 3464, win 501, options [nop,nop,TS val 1381495928 ecr 100148099], length 126
	0x0000:  4201 0a92 2801 4201 0a92 2806 0800 4500
	0x0010:  00b2 1910 4000 4006 3efb 0a92 2806 c092
	0x0020:  ef10 8dfa 1629 62a0 9952 459a 5e1c 8018
	0x0030:  01f5 e2df 0000 0101 080a 5257 f478 05f8
	0x0040:  2383 1603 0300 4610 0000 4241 0410 bc33
	0x0050:  18df d965 77bd dba6 fdc0 3c1c 461f 45c7
	0x0060:  a20a 867a 682d 96db 106a 76c7 bf4b 749f
	0x0070:  52c4 6944 5a54 3915 8890 4125 2869 946d
	0x0080:  90be fddd 55c1 b483 721c 16bd eb14 0303
	0x0090:  0001 0116 0303 0028 0000 0000 0000 0000
	0x00a0:  7d1c 3c07 94e1 485d da62 267f 9e81 1395
	0x00b0:  73dd 5fbe bd39 e432 84ae 5b67 4b19 8a3f

